{
  "contractName": "NotarizeTx",
  "abi": [
    {
      "constant": true,
      "inputs": [],
      "name": "BSG_NODE",
      "outputs": [
        {
          "name": "",
          "type": "address"
        }
      ],
      "payable": false,
      "stateMutability": "view",
      "type": "function"
    },
    {
      "inputs": [
        {
          "name": "_buyer",
          "type": "address"
        },
        {
          "name": "_seller",
          "type": "address"
        },
        {
          "name": "_id",
          "type": "bytes32"
        },
        {
          "name": "_date",
          "type": "string"
        },
        {
          "name": "_value",
          "type": "uint256"
        },
        {
          "name": "_hash",
          "type": "bytes32"
        },
        {
          "name": "_status",
          "type": "string"
        },
        {
          "name": "_shipping",
          "type": "string"
        }
      ],
      "payable": false,
      "stateMutability": "nonpayable",
      "type": "constructor"
    },
    {
      "anonymous": false,
      "inputs": [
        {
          "indexed": false,
          "name": "_hash",
          "type": "bytes32"
        },
        {
          "indexed": false,
          "name": "_id",
          "type": "bytes32"
        }
      ],
      "name": "NotaryEvt",
      "type": "event"
    },
    {
      "constant": false,
      "inputs": [
        {
          "name": "_status",
          "type": "string"
        },
        {
          "name": "_hash",
          "type": "bytes32"
        },
        {
          "name": "_id",
          "type": "bytes32"
        }
      ],
      "name": "updateStatus",
      "outputs": [],
      "payable": false,
      "stateMutability": "nonpayable",
      "type": "function"
    },
    {
      "constant": false,
      "inputs": [
        {
          "name": "_shipping",
          "type": "string"
        },
        {
          "name": "_hash",
          "type": "bytes32"
        },
        {
          "name": "_id",
          "type": "bytes32"
        }
      ],
      "name": "updateShipping",
      "outputs": [],
      "payable": false,
      "stateMutability": "nonpayable",
      "type": "function"
    }
  ],
  "bytecode": "0x608060405234801561001057600080fd5b50604051610841380380610841833981018060405281019080805190602001909291908051906020019092919080519060200190929190805182019291906020018051906020019092919080519060200190929190805182019291906020018051820192919050505087600260000160006101000a81548173ffffffffffffffffffffffffffffffffffffffff021916908373ffffffffffffffffffffffffffffffffffffffff16021790555086600260010160006101000a81548173ffffffffffffffffffffffffffffffffffffffff021916908373ffffffffffffffffffffffffffffffffffffffff1602179055508560028001816000191690555084600260030190805190602001906101279291906101e5565b5083600260040181905550826002600501816000191690555081600260060190805190602001906101599291906101e5565b5080600260070190805190602001906101739291906101e5565b50856000808560001916600019168152602001908152602001600020816000191690555033600160006101000a81548173ffffffffffffffffffffffffffffffffffffffff021916908373ffffffffffffffffffffffffffffffffffffffff160217905550505050505050505061028a565b828054600181600116156101000203166002900490600052602060002090601f016020900481019282601f1061022657805160ff1916838001178555610254565b82800160010185558215610254579182015b82811115610253578251825591602001919060010190610238565b5b5090506102619190610265565b5090565b61028791905b8082111561028357600081600090555060010161026b565b5090565b90565b6105a8806102996000396000f300608060405260043610610057576000357c0100000000000000000000000000000000000000000000000000000000900463ffffffff1680631781dbd81461005c578063a2d58fdd146100b3578063ecfa1bca14610138575b600080fd5b34801561006857600080fd5b506100716101bd565b604051808273ffffffffffffffffffffffffffffffffffffffff1673ffffffffffffffffffffffffffffffffffffffff16815260200191505060405180910390f35b3480156100bf57600080fd5b50610136600480360381019080803590602001908201803590602001908080601f0160208091040260200160405190810160405280939291908181526020018383808284378201915050505050509192919290803560001916906020019092919080356000191690602001909291905050506101e3565b005b34801561014457600080fd5b506101bb600480360381019080803590602001908201803590602001908080601f01602080910402602001604051908101604052809392919081815260200183838082843782019150505050505091929192908035600019169060200190929190803560001916906020019092919050505061035f565b005b600160009054906101000a900473ffffffffffffffffffffffffffffffffffffffff1681565b60028001546000191681600019161415156101fd57600080fd5b600260000160009054906101000a900473ffffffffffffffffffffffffffffffffffffffff1673ffffffffffffffffffffffffffffffffffffffff163373ffffffffffffffffffffffffffffffffffffffff1614806102a95750600160009054906101000a900473ffffffffffffffffffffffffffffffffffffffff1673ffffffffffffffffffffffffffffffffffffffff163373ffffffffffffffffffffffffffffffffffffffff16145b156103555782600260060190805190602001906102c79291906104d7565b5081600260050181600019169055506002800154600080846000191660001916815260200190815260200160002081600019169055507fe5d5bf8ea78ec03a3dcd460fddcbafc825fc5998cdcc276cbf12186399228bbe82600280015460405180836000191660001916815260200182600019166000191681526020019250505060405180910390a161035a565b600080fd5b505050565b600280015460001916816000191614151561037957600080fd5b600260000160009054906101000a900473ffffffffffffffffffffffffffffffffffffffff1673ffffffffffffffffffffffffffffffffffffffff163373ffffffffffffffffffffffffffffffffffffffff1614806104255750600160009054906101000a900473ffffffffffffffffffffffffffffffffffffffff1673ffffffffffffffffffffffffffffffffffffffff163373ffffffffffffffffffffffffffffffffffffffff16145b156104cd5782600260060190805190602001906104439291906104d7565b50816002600501816000191690555080600080846000191660001916815260200190815260200160002081600019169055507fe5d5bf8ea78ec03a3dcd460fddcbafc825fc5998cdcc276cbf12186399228bbe82600280015460405180836000191660001916815260200182600019166000191681526020019250505060405180910390a16104d2565b600080fd5b505050565b828054600181600116156101000203166002900490600052602060002090601f016020900481019282601f1061051857805160ff1916838001178555610546565b82800160010185558215610546579182015b8281111561054557825182559160200191906001019061052a565b5b5090506105539190610557565b5090565b61057991905b8082111561057557600081600090555060010161055d565b5090565b905600a165627a7a72305820f1b880902564174165ff56a9cf9e1814b59e3b7d6825c2487708fcd2c6d8717a0029",
  "source": "pragma solidity ^0.4.15;\n\ncontract NotarizeTx {\n\n  //State variables\n  mapping (bytes32 => bytes32) private proofs;\n  address public BSG_NODE;\n  struct Tx {\n    address buyer;\n    address seller;\n    bytes32 id;\n    string date;\n    uint value;\n    bytes32 hash;\n    string status;\n    string shipping;\n  }\n\n  Tx _tx;\n  event NotaryEvt(bytes32 _hash, bytes32 _id);\n\n  /*\n    Contract constructor takes _user as client Ethereum address\n   */\n constructor(address _buyer, address _seller, bytes32 _id, string _date, uint _value, bytes32 _hash, string _status, string _shipping) public {\n    _tx.buyer = _buyer;\n    _tx.seller = _seller;\n    _tx.id = _id;\n    _tx.date = _date;\n    _tx.value = _value;\n    _tx.hash = _hash;\n    _tx.status = _status;\n    _tx.shipping = _shipping;\n    proofs[_hash] = _id;\n    BSG_NODE = msg.sender;\n  }\n  /**\n  *\n  *\n   */\n  function updateStatus(string _status, bytes32 _hash, bytes32 _id) public {\n    if (_id != _tx.id)\n      revert();\n\n    if (msg.sender == _tx.buyer || msg.sender == BSG_NODE) {\n      _tx.status = _status;\n      _tx.hash = _hash;\n      proofs[_hash] = _id;\n    emit  NotaryEvt(_hash, _tx.id);\n    } else {\n      revert();\n    }\n  }\n  /**\n  *\n   */\n  function updateShipping(string _shipping, bytes32 _hash, bytes32 _id) public {\n    if (_id != _tx.id)\n      revert();\n\n    if (msg.sender == _tx.buyer || msg.sender == BSG_NODE) {\n      _tx.status = _shipping;\n      _tx.hash = _hash;\n      proofs[_hash] = _tx.id;\n      emit NotaryEvt(_hash, _tx.id);\n    } else {\n      revert();\n    }\n  }\n}\n",
  "sourcePath": "/home/castor/Documentos/pruebasBitcoin/truffle-contract/contracts/notarization.sol",
  "compiler": {
    "name": "solc",
    "version": "0.4.23+commit.124ca40d.Emscripten.clang"
  },
  "schemaVersion": "2.0.0",
  "updatedAt": "2018-05-22T22:33:08.105Z"
}